{
  "abi": [
    {
      "inputs": [],
      "stateMutability": "nonpayable",
      "type": "constructor"
    },
    {
      "anonymous": false,
      "inputs": [
        {
          "indexed": true,
          "internalType": "address",
          "name": "user",
          "type": "address"
        },
        {
          "indexed": false,
          "internalType": "string",
          "name": "role",
          "type": "string"
        },
        {
          "indexed": false,
          "internalType": "string",
          "name": "action_type",
          "type": "string"
        },
        {
          "indexed": false,
          "internalType": "uint256",
          "name": "created_at",
          "type": "uint256"
        }
      ],
      "name": "ActionLogged",
      "type": "event"
    },
    {
      "anonymous": false,
      "inputs": [
        {
          "indexed": true,
          "internalType": "address",
          "name": "user",
          "type": "address"
        },
        {
          "indexed": false,
          "internalType": "string",
          "name": "role",
          "type": "string"
        },
        {
          "indexed": false,
          "internalType": "string",
          "name": "action_type",
          "type": "string"
        },
        {
          "indexed": false,
          "internalType": "uint256",
          "name": "created_at",
          "type": "uint256"
        },
        {
          "components": [
            {
              "internalType": "bool",
              "name": "treatment",
              "type": "bool"
            },
            {
              "internalType": "bool",
              "name": "referral",
              "type": "bool"
            },
            {
              "internalType": "bool",
              "name": "research",
              "type": "bool"
            }
          ],
          "indexed": false,
          "internalType": "struct LogAudits.Consent",
          "name": "granted_consent",
          "type": "tuple"
        }
      ],
      "name": "PatientLogged",
      "type": "event"
    },
    {
      "inputs": [
        {
          "internalType": "address",
          "name": "user",
          "type": "address"
        },
        {
          "internalType": "string",
          "name": "_role",
          "type": "string"
        }
      ],
      "name": "addDiagnosis",
      "outputs": [],
      "stateMutability": "nonpayable",
      "type": "function"
    },
    {
      "inputs": [
        {
          "internalType": "address",
          "name": "user",
          "type": "address"
        },
        {
          "internalType": "string",
          "name": "_role",
          "type": "string"
        }
      ],
      "name": "assignTest",
      "outputs": [],
      "stateMutability": "nonpayable",
      "type": "function"
    },
    {
      "inputs": [
        {
          "internalType": "address",
          "name": "provider",
          "type": "address"
        }
      ],
      "name": "authorizeProvider",
      "outputs": [],
      "stateMutability": "nonpayable",
      "type": "function"
    },
    {
      "inputs": [],
      "name": "getOwner",
      "outputs": [
        {
          "internalType": "address",
          "name": "",
          "type": "address"
        }
      ],
      "stateMutability": "view",
      "type": "function"
    },
    {
      "inputs": [
        {
          "internalType": "address",
          "name": "user",
          "type": "address"
        },
        {
          "internalType": "string",
          "name": "_role",
          "type": "string"
        }
      ],
      "name": "referToDoctor",
      "outputs": [],
      "stateMutability": "nonpayable",
      "type": "function"
    },
    {
      "inputs": [
        {
          "internalType": "bool",
          "name": "_treatmentConsent",
          "type": "bool"
        },
        {
          "internalType": "bool",
          "name": "_referralConsent",
          "type": "bool"
        },
        {
          "internalType": "bool",
          "name": "_researchConsent",
          "type": "bool"
        },
        {
          "internalType": "string",
          "name": "_role",
          "type": "string"
        }
      ],
      "name": "submitSymptom",
      "outputs": [],
      "stateMutability": "nonpayable",
      "type": "function"
    },
    {
      "inputs": [
        {
          "internalType": "address",
          "name": "user",
          "type": "address"
        },
        {
          "internalType": "string",
          "name": "_role",
          "type": "string"
        }
      ],
      "name": "updateTestResults",
      "outputs": [],
      "stateMutability": "nonpayable",
      "type": "function"
    }
  ],
  "bytecode": "6080604052348015600f57600080fd5b50600280546001600160a01b031916331790556107de806100316000396000f3fe608060405234801561001057600080fd5b506004361061007d5760003560e01c80638fd1fd101161005b5780638fd1fd10146100c9578063a6a70f66146100dc578063b00efd35146100ef578063b451c6221461010257600080fd5b8063112ea262146100825780638445ffb814610097578063893d20e8146100aa575b600080fd5b6100956100903660046103d8565b610115565b005b6100956100a536600461049f565b6101a7565b600254604080516001600160a01b039092168252519081900360200190f35b6100956100d73660046104fd565b61020b565b6100956100ea36600461049f565b6102b4565b6100956100fd36600461049f565b61030c565b61009561011036600461049f565b610364565b6002546001600160a01b031633146101805760405162461bcd60e51b8152602060048201526024808201527f4f6e6c79206f776e65722063616e20706572666f726d20746869732066756e636044820152633a34b7b760e11b60648201526084015b60405180910390fd5b6001600160a01b03166000908152600160208190526040909120805460ff19169091179055565b3360009081526001602052604090205460ff166101d65760405162461bcd60e51b81526004016101779061056c565b816001600160a01b031660008051602061078983398151915282426040516101ff9291906105e9565b60405180910390a25050565b6040805160608101825285151581528415156020808301918252851515838501908152336000818152928390529185902093518454935191511515620100000262ff0000199215156101000261ff00199215159290921661ffff1990951694909417171691909117825591517fbaf4064c4bce11ab1664ab198d1f4c3902389a7fe4a40279db2d522716fb729b916102a69185914291610632565b60405180910390a250505050565b3360009081526001602052604090205460ff166102e35760405162461bcd60e51b81526004016101779061056c565b816001600160a01b031660008051602061078983398151915282426040516101ff9291906106a7565b3360009081526001602052604090205460ff1661033b5760405162461bcd60e51b81526004016101779061056c565b816001600160a01b031660008051602061078983398151915282426040516101ff9291906106f6565b3360009081526001602052604090205460ff166103935760405162461bcd60e51b81526004016101779061056c565b816001600160a01b031660008051602061078983398151915282426040516101ff92919061073d565b80356001600160a01b03811681146103d357600080fd5b919050565b6000602082840312156103ea57600080fd5b6103f3826103bc565b9392505050565b634e487b7160e01b600052604160045260246000fd5b600082601f83011261042157600080fd5b813567ffffffffffffffff81111561043b5761043b6103fa565b604051601f8201601f19908116603f0116810167ffffffffffffffff8111828210171561046a5761046a6103fa565b60405281815283820160200185101561048257600080fd5b816020850160208301376000918101602001919091529392505050565b600080604083850312156104b257600080fd5b6104bb836103bc565b9150602083013567ffffffffffffffff8111156104d757600080fd5b6104e385828601610410565b9150509250929050565b803580151581146103d357600080fd5b6000806000806080858703121561051357600080fd5b61051c856104ed565b935061052a602086016104ed565b9250610538604086016104ed565b9150606085013567ffffffffffffffff81111561055457600080fd5b61056087828801610410565b91505092959194509250565b6020808252601a908201527f4e6f7420616e20617574686f72697a65642070726f7669646572000000000000604082015260600190565b6000815180845260005b818110156105c9576020818501810151868301820152016105ad565b506000602082860101526020601f19601f83011685010191505092915050565b6060815260006105fc60608301856105a3565b8281036020840152600d81526c6164645f646961676e6f73697360981b6020820152604081019150508260408301529392505050565b60c08152600061064560c08301866105a3565b8281036020840152600e81526d7375626d69745f73796d70746f6d60901b602082015260408101915050836040830152825460ff81161515606084015260ff8160081c161515608084015260ff8160101c16151560a084015250949350505050565b6060815260006106ba60608301856105a3565b828103602084015260138152727570646174655f746573745f726573756c747360681b6020820152604081019150508260408301529392505050565b60608152600061070960608301856105a3565b8281036020840152600b81526a185cdcda59db97dd195cdd60aa1b6020820152604081019150508260408301529392505050565b60608152600061075060608301856105a3565b8281036020840152600f81526e3932b332b92fba37afb237b1ba37b960891b602082015260408101915050826040830152939250505056fe5b56e6ffbe95b7f92c787b65102287621b8b2f70e10bdf8c52f38ba60adaadfea26469706673582212205510dc99ca08c9df720d13ee5d1b8b706f6f2a7af2cd689ee886a4c6e9562ab564736f6c634300081e0033",
  "bytecodeSha1": "d6660aca544e0fc0f5e7d44c947b8e45d09d1441",
  "compiler": {
    "evm_version": "istanbul",
    "optimizer": {
      "enabled": true,
      "runs": 200
    },
    "version": "0.8.30+commit.73712a01"
  },
  "contractName": "LogAudits",
  "language": "Solidity",
  "natspec": {
    "kind": "dev",
    "methods": {},
    "version": 1
  },
  "opcodes": "PUSH1 0x80 PUSH1 0x40 MSTORE CALLVALUE DUP1 ISZERO PUSH2 0x10 JUMPI PUSH1 0x0 DUP1 REVERT JUMPDEST POP PUSH1 0x4 CALLDATASIZE LT PUSH2 0x7D JUMPI PUSH1 0x0 CALLDATALOAD PUSH1 0xE0 SHR DUP1 PUSH4 0x8FD1FD10 GT PUSH2 0x5B JUMPI DUP1 PUSH4 0x8FD1FD10 EQ PUSH2 0xC9 JUMPI DUP1 PUSH4 0xA6A70F66 EQ PUSH2 0xDC JUMPI DUP1 PUSH4 0xB00EFD35 EQ PUSH2 0xEF JUMPI DUP1 PUSH4 0xB451C622 EQ PUSH2 0x102 JUMPI PUSH1 0x0 DUP1 REVERT JUMPDEST DUP1 PUSH4 0x112EA262 EQ PUSH2 0x82 JUMPI DUP1 PUSH4 0x8445FFB8 EQ PUSH2 0x97 JUMPI DUP1 PUSH4 0x893D20E8 EQ PUSH2 0xAA JUMPI JUMPDEST PUSH1 0x0 DUP1 REVERT JUMPDEST PUSH2 0x95 PUSH2 0x90 CALLDATASIZE PUSH1 0x4 PUSH2 0x3D8 JUMP JUMPDEST PUSH2 0x115 JUMP JUMPDEST STOP JUMPDEST PUSH2 0x95 PUSH2 0xA5 CALLDATASIZE PUSH1 0x4 PUSH2 0x49F JUMP JUMPDEST PUSH2 0x1A7 JUMP JUMPDEST PUSH1 0x2 SLOAD PUSH1 0x40 DUP1 MLOAD PUSH1 0x1 PUSH1 0x1 PUSH1 0xA0 SHL SUB SWAP1 SWAP3 AND DUP3 MSTORE MLOAD SWAP1 DUP2 SWAP1 SUB PUSH1 0x20 ADD SWAP1 RETURN JUMPDEST PUSH2 0x95 PUSH2 0xD7 CALLDATASIZE PUSH1 0x4 PUSH2 0x4FD JUMP JUMPDEST PUSH2 0x20B JUMP JUMPDEST PUSH2 0x95 PUSH2 0xEA CALLDATASIZE PUSH1 0x4 PUSH2 0x49F JUMP JUMPDEST PUSH2 0x2B4 JUMP JUMPDEST PUSH2 0x95 PUSH2 0xFD CALLDATASIZE PUSH1 0x4 PUSH2 0x49F JUMP JUMPDEST PUSH2 0x30C JUMP JUMPDEST PUSH2 0x95 PUSH2 0x110 CALLDATASIZE PUSH1 0x4 PUSH2 0x49F JUMP JUMPDEST PUSH2 0x364 JUMP JUMPDEST PUSH1 0x2 SLOAD PUSH1 0x1 PUSH1 0x1 PUSH1 0xA0 SHL SUB AND CALLER EQ PUSH2 0x180 JUMPI PUSH1 0x40 MLOAD PUSH3 0x461BCD PUSH1 0xE5 SHL DUP2 MSTORE PUSH1 0x20 PUSH1 0x4 DUP3 ADD MSTORE PUSH1 0x24 DUP1 DUP3 ADD MSTORE PUSH32 0x4F6E6C79206F776E65722063616E20706572666F726D20746869732066756E63 PUSH1 0x44 DUP3 ADD MSTORE PUSH4 0x3A34B7B7 PUSH1 0xE1 SHL PUSH1 0x64 DUP3 ADD MSTORE PUSH1 0x84 ADD JUMPDEST PUSH1 0x40 MLOAD DUP1 SWAP2 SUB SWAP1 REVERT JUMPDEST PUSH1 0x1 PUSH1 0x1 PUSH1 0xA0 SHL SUB AND PUSH1 0x0 SWAP1 DUP2 MSTORE PUSH1 0x1 PUSH1 0x20 DUP2 SWAP1 MSTORE PUSH1 0x40 SWAP1 SWAP2 KECCAK256 DUP1 SLOAD PUSH1 0xFF NOT AND SWAP1 SWAP2 OR SWAP1 SSTORE JUMP JUMPDEST CALLER PUSH1 0x0 SWAP1 DUP2 MSTORE PUSH1 0x1 PUSH1 0x20 MSTORE PUSH1 0x40 SWAP1 KECCAK256 SLOAD PUSH1 0xFF AND PUSH2 0x1D6 JUMPI PUSH1 0x40 MLOAD PUSH3 0x461BCD PUSH1 0xE5 SHL DUP2 MSTORE PUSH1 0x4 ADD PUSH2 0x177 SWAP1 PUSH2 0x56C JUMP JUMPDEST DUP2 PUSH1 0x1 PUSH1 0x1 PUSH1 0xA0 SHL SUB AND PUSH1 0x0 DUP1 MLOAD PUSH1 0x20 PUSH2 0x789 DUP4 CODECOPY DUP2 MLOAD SWAP2 MSTORE DUP3 TIMESTAMP PUSH1 0x40 MLOAD PUSH2 0x1FF SWAP3 SWAP2 SWAP1 PUSH2 0x5E9 JUMP JUMPDEST PUSH1 0x40 MLOAD DUP1 SWAP2 SUB SWAP1 LOG2 POP POP JUMP JUMPDEST PUSH1 0x40 DUP1 MLOAD PUSH1 0x60 DUP2 ADD DUP3 MSTORE DUP6 ISZERO ISZERO DUP2 MSTORE DUP5 ISZERO ISZERO PUSH1 0x20 DUP1 DUP4 ADD SWAP2 DUP3 MSTORE DUP6 ISZERO ISZERO DUP4 DUP6 ADD SWAP1 DUP2 MSTORE CALLER PUSH1 0x0 DUP2 DUP2 MSTORE SWAP3 DUP4 SWAP1 MSTORE SWAP2 DUP6 SWAP1 KECCAK256 SWAP4 MLOAD DUP5 SLOAD SWAP4 MLOAD SWAP2 MLOAD ISZERO ISZERO PUSH3 0x10000 MUL PUSH3 0xFF0000 NOT SWAP3 ISZERO ISZERO PUSH2 0x100 MUL PUSH2 0xFF00 NOT SWAP3 ISZERO ISZERO SWAP3 SWAP1 SWAP3 AND PUSH2 0xFFFF NOT SWAP1 SWAP6 AND SWAP5 SWAP1 SWAP5 OR OR AND SWAP2 SWAP1 SWAP2 OR DUP3 SSTORE SWAP2 MLOAD PUSH32 0xBAF4064C4BCE11AB1664AB198D1F4C3902389A7FE4A40279DB2D522716FB729B SWAP2 PUSH2 0x2A6 SWAP2 DUP6 SWAP2 TIMESTAMP SWAP2 PUSH2 0x632 JUMP JUMPDEST PUSH1 0x40 MLOAD DUP1 SWAP2 SUB SWAP1 LOG2 POP POP POP POP JUMP JUMPDEST CALLER PUSH1 0x0 SWAP1 DUP2 MSTORE PUSH1 0x1 PUSH1 0x20 MSTORE PUSH1 0x40 SWAP1 KECCAK256 SLOAD PUSH1 0xFF AND PUSH2 0x2E3 JUMPI PUSH1 0x40 MLOAD PUSH3 0x461BCD PUSH1 0xE5 SHL DUP2 MSTORE PUSH1 0x4 ADD PUSH2 0x177 SWAP1 PUSH2 0x56C JUMP JUMPDEST DUP2 PUSH1 0x1 PUSH1 0x1 PUSH1 0xA0 SHL SUB AND PUSH1 0x0 DUP1 MLOAD PUSH1 0x20 PUSH2 0x789 DUP4 CODECOPY DUP2 MLOAD SWAP2 MSTORE DUP3 TIMESTAMP PUSH1 0x40 MLOAD PUSH2 0x1FF SWAP3 SWAP2 SWAP1 PUSH2 0x6A7 JUMP JUMPDEST CALLER PUSH1 0x0 SWAP1 DUP2 MSTORE PUSH1 0x1 PUSH1 0x20 MSTORE PUSH1 0x40 SWAP1 KECCAK256 SLOAD PUSH1 0xFF AND PUSH2 0x33B JUMPI PUSH1 0x40 MLOAD PUSH3 0x461BCD PUSH1 0xE5 SHL DUP2 MSTORE PUSH1 0x4 ADD PUSH2 0x177 SWAP1 PUSH2 0x56C JUMP JUMPDEST DUP2 PUSH1 0x1 PUSH1 0x1 PUSH1 0xA0 SHL SUB AND PUSH1 0x0 DUP1 MLOAD PUSH1 0x20 PUSH2 0x789 DUP4 CODECOPY DUP2 MLOAD SWAP2 MSTORE DUP3 TIMESTAMP PUSH1 0x40 MLOAD PUSH2 0x1FF SWAP3 SWAP2 SWAP1 PUSH2 0x6F6 JUMP JUMPDEST CALLER PUSH1 0x0 SWAP1 DUP2 MSTORE PUSH1 0x1 PUSH1 0x20 MSTORE PUSH1 0x40 SWAP1 KECCAK256 SLOAD PUSH1 0xFF AND PUSH2 0x393 JUMPI PUSH1 0x40 MLOAD PUSH3 0x461BCD PUSH1 0xE5 SHL DUP2 MSTORE PUSH1 0x4 ADD PUSH2 0x177 SWAP1 PUSH2 0x56C JUMP JUMPDEST DUP2 PUSH1 0x1 PUSH1 0x1 PUSH1 0xA0 SHL SUB AND PUSH1 0x0 DUP1 MLOAD PUSH1 0x20 PUSH2 0x789 DUP4 CODECOPY DUP2 MLOAD SWAP2 MSTORE DUP3 TIMESTAMP PUSH1 0x40 MLOAD PUSH2 0x1FF SWAP3 SWAP2 SWAP1 PUSH2 0x73D JUMP JUMPDEST DUP1 CALLDATALOAD PUSH1 0x1 PUSH1 0x1 PUSH1 0xA0 SHL SUB DUP2 AND DUP2 EQ PUSH2 0x3D3 JUMPI PUSH1 0x0 DUP1 REVERT JUMPDEST SWAP2 SWAP1 POP JUMP JUMPDEST PUSH1 0x0 PUSH1 0x20 DUP3 DUP5 SUB SLT ISZERO PUSH2 0x3EA JUMPI PUSH1 0x0 DUP1 REVERT JUMPDEST PUSH2 0x3F3 DUP3 PUSH2 0x3BC JUMP JUMPDEST SWAP4 SWAP3 POP POP POP JUMP JUMPDEST PUSH4 0x4E487B71 PUSH1 0xE0 SHL PUSH1 0x0 MSTORE PUSH1 0x41 PUSH1 0x4 MSTORE PUSH1 0x24 PUSH1 0x0 REVERT JUMPDEST PUSH1 0x0 DUP3 PUSH1 0x1F DUP4 ADD SLT PUSH2 0x421 JUMPI PUSH1 0x0 DUP1 REVERT JUMPDEST DUP2 CALLDATALOAD PUSH8 0xFFFFFFFFFFFFFFFF DUP2 GT ISZERO PUSH2 0x43B JUMPI PUSH2 0x43B PUSH2 0x3FA JUMP JUMPDEST PUSH1 0x40 MLOAD PUSH1 0x1F DUP3 ADD PUSH1 0x1F NOT SWAP1 DUP2 AND PUSH1 0x3F ADD AND DUP2 ADD PUSH8 0xFFFFFFFFFFFFFFFF DUP2 GT DUP3 DUP3 LT OR ISZERO PUSH2 0x46A JUMPI PUSH2 0x46A PUSH2 0x3FA JUMP JUMPDEST PUSH1 0x40 MSTORE DUP2 DUP2 MSTORE DUP4 DUP3 ADD PUSH1 0x20 ADD DUP6 LT ISZERO PUSH2 0x482 JUMPI PUSH1 0x0 DUP1 REVERT JUMPDEST DUP2 PUSH1 0x20 DUP6 ADD PUSH1 0x20 DUP4 ADD CALLDATACOPY PUSH1 0x0 SWAP2 DUP2 ADD PUSH1 0x20 ADD SWAP2 SWAP1 SWAP2 MSTORE SWAP4 SWAP3 POP POP POP JUMP JUMPDEST PUSH1 0x0 DUP1 PUSH1 0x40 DUP4 DUP6 SUB SLT ISZERO PUSH2 0x4B2 JUMPI PUSH1 0x0 DUP1 REVERT JUMPDEST PUSH2 0x4BB DUP4 PUSH2 0x3BC JUMP JUMPDEST SWAP2 POP PUSH1 0x20 DUP4 ADD CALLDATALOAD PUSH8 0xFFFFFFFFFFFFFFFF DUP2 GT ISZERO PUSH2 0x4D7 JUMPI PUSH1 0x0 DUP1 REVERT JUMPDEST PUSH2 0x4E3 DUP6 DUP3 DUP7 ADD PUSH2 0x410 JUMP JUMPDEST SWAP2 POP POP SWAP3 POP SWAP3 SWAP1 POP JUMP JUMPDEST DUP1 CALLDATALOAD DUP1 ISZERO ISZERO DUP2 EQ PUSH2 0x3D3 JUMPI PUSH1 0x0 DUP1 REVERT JUMPDEST PUSH1 0x0 DUP1 PUSH1 0x0 DUP1 PUSH1 0x80 DUP6 DUP8 SUB SLT ISZERO PUSH2 0x513 JUMPI PUSH1 0x0 DUP1 REVERT JUMPDEST PUSH2 0x51C DUP6 PUSH2 0x4ED JUMP JUMPDEST SWAP4 POP PUSH2 0x52A PUSH1 0x20 DUP7 ADD PUSH2 0x4ED JUMP JUMPDEST SWAP3 POP PUSH2 0x538 PUSH1 0x40 DUP7 ADD PUSH2 0x4ED JUMP JUMPDEST SWAP2 POP PUSH1 0x60 DUP6 ADD CALLDATALOAD PUSH8 0xFFFFFFFFFFFFFFFF DUP2 GT ISZERO PUSH2 0x554 JUMPI PUSH1 0x0 DUP1 REVERT JUMPDEST PUSH2 0x560 DUP8 DUP3 DUP9 ADD PUSH2 0x410 JUMP JUMPDEST SWAP2 POP POP SWAP3 SWAP6 SWAP2 SWAP5 POP SWAP3 POP JUMP JUMPDEST PUSH1 0x20 DUP1 DUP3 MSTORE PUSH1 0x1A SWAP1 DUP3 ADD MSTORE PUSH32 0x4E6F7420616E20617574686F72697A65642070726F7669646572000000000000 PUSH1 0x40 DUP3 ADD MSTORE PUSH1 0x60 ADD SWAP1 JUMP JUMPDEST PUSH1 0x0 DUP2 MLOAD DUP1 DUP5 MSTORE PUSH1 0x0 JUMPDEST DUP2 DUP2 LT ISZERO PUSH2 0x5C9 JUMPI PUSH1 0x20 DUP2 DUP6 ADD DUP2 ADD MLOAD DUP7 DUP4 ADD DUP3 ADD MSTORE ADD PUSH2 0x5AD JUMP JUMPDEST POP PUSH1 0x0 PUSH1 0x20 DUP3 DUP7 ADD ADD MSTORE PUSH1 0x20 PUSH1 0x1F NOT PUSH1 0x1F DUP4 ADD AND DUP6 ADD ADD SWAP2 POP POP SWAP3 SWAP2 POP POP JUMP JUMPDEST PUSH1 0x60 DUP2 MSTORE PUSH1 0x0 PUSH2 0x5FC PUSH1 0x60 DUP4 ADD DUP6 PUSH2 0x5A3 JUMP JUMPDEST DUP3 DUP2 SUB PUSH1 0x20 DUP5 ADD MSTORE PUSH1 0xD DUP2 MSTORE PUSH13 0x6164645F646961676E6F736973 PUSH1 0x98 SHL PUSH1 0x20 DUP3 ADD MSTORE PUSH1 0x40 DUP2 ADD SWAP2 POP POP DUP3 PUSH1 0x40 DUP4 ADD MSTORE SWAP4 SWAP3 POP POP POP JUMP JUMPDEST PUSH1 0xC0 DUP2 MSTORE PUSH1 0x0 PUSH2 0x645 PUSH1 0xC0 DUP4 ADD DUP7 PUSH2 0x5A3 JUMP JUMPDEST DUP3 DUP2 SUB PUSH1 0x20 DUP5 ADD MSTORE PUSH1 0xE DUP2 MSTORE PUSH14 0x7375626D69745F73796D70746F6D PUSH1 0x90 SHL PUSH1 0x20 DUP3 ADD MSTORE PUSH1 0x40 DUP2 ADD SWAP2 POP POP DUP4 PUSH1 0x40 DUP4 ADD MSTORE DUP3 SLOAD PUSH1 0xFF DUP2 AND ISZERO ISZERO PUSH1 0x60 DUP5 ADD MSTORE PUSH1 0xFF DUP2 PUSH1 0x8 SHR AND ISZERO ISZERO PUSH1 0x80 DUP5 ADD MSTORE PUSH1 0xFF DUP2 PUSH1 0x10 SHR AND ISZERO ISZERO PUSH1 0xA0 DUP5 ADD MSTORE POP SWAP5 SWAP4 POP POP POP POP JUMP JUMPDEST PUSH1 0x60 DUP2 MSTORE PUSH1 0x0 PUSH2 0x6BA PUSH1 0x60 DUP4 ADD DUP6 PUSH2 0x5A3 JUMP JUMPDEST DUP3 DUP2 SUB PUSH1 0x20 DUP5 ADD MSTORE PUSH1 0x13 DUP2 MSTORE PUSH19 0x7570646174655F746573745F726573756C7473 PUSH1 0x68 SHL PUSH1 0x20 DUP3 ADD MSTORE PUSH1 0x40 DUP2 ADD SWAP2 POP POP DUP3 PUSH1 0x40 DUP4 ADD MSTORE SWAP4 SWAP3 POP POP POP JUMP JUMPDEST PUSH1 0x60 DUP2 MSTORE PUSH1 0x0 PUSH2 0x709 PUSH1 0x60 DUP4 ADD DUP6 PUSH2 0x5A3 JUMP JUMPDEST DUP3 DUP2 SUB PUSH1 0x20 DUP5 ADD MSTORE PUSH1 0xB DUP2 MSTORE PUSH11 0x185CDCDA59DB97DD195CDD PUSH1 0xAA SHL PUSH1 0x20 DUP3 ADD MSTORE PUSH1 0x40 DUP2 ADD SWAP2 POP POP DUP3 PUSH1 0x40 DUP4 ADD MSTORE SWAP4 SWAP3 POP POP POP JUMP JUMPDEST PUSH1 0x60 DUP2 MSTORE PUSH1 0x0 PUSH2 0x750 PUSH1 0x60 DUP4 ADD DUP6 PUSH2 0x5A3 JUMP JUMPDEST DUP3 DUP2 SUB PUSH1 0x20 DUP5 ADD MSTORE PUSH1 0xF DUP2 MSTORE PUSH15 0x3932B332B92FBA37AFB237B1BA37B9 PUSH1 0x89 SHL PUSH1 0x20 DUP3 ADD MSTORE PUSH1 0x40 DUP2 ADD SWAP2 POP POP DUP3 PUSH1 0x40 DUP4 ADD MSTORE SWAP4 SWAP3 POP POP POP JUMP INVALID JUMPDEST JUMP DUPN 0xFF 0xBE SWAP6 0xB7 EXTDELEGATECALL 0x2C PUSH25 0x7B65102287621B8B2F70E10BDF8C52F38BA60ADAADFEA26469 PUSH17 0x6673582212205510DC99CA08C9DF720D13 RETURNCONTRACT 0x5D SHL DUP12 PUSH17 0x6F6F2A7AF2CD689EE886A4C6E9562AB564 PUSH20 0x6F6C634300081E00330000000000000000000000 ",
  "sha1": "9e11d947a673d6f92ed149f915915668fecbd475",
  "source": "// SPDX-License-Identifier: MIT\npragma solidity ^0.8.0;\n\ncontract LogAudits {\n    // Define the struct for consent information\n    struct Consent {\n        bool treatment;\n        bool referral;\n        bool research;\n    }\n\n    // Mapping to store consent data for each user (address)\n    mapping(address => Consent) private userConsent;\n    // Mapping to store authorized addresses (providers can be doctors, lab staff, etc.)\n    mapping(address => bool) private authorizedProviders;\n\n    // Define the structure of the event\n    event PatientLogged(\n        address indexed user,            // The user performing the action\n        string role,                     // Role of the user (e.g., patient, doctor, lab staff)\n        string action_type,              // The type of action (e.g., submit_symptom, add_diagnosis)\n        uint256 created_at,              // Timestamp of the action\n        Consent granted_consent          // Consent for the action (only used in submit_symptom)\n    );\n\n    event ActionLogged(\n        address indexed user,            // The user performing the action\n        string role,                     // Role of the user (e.g., patient, doctor, lab staff)\n        string action_type,              // The type of action (e.g., submit_symptom, add_diagnosis)\n        uint256 created_at\n    );\n\n    address owner;\n\n    modifier onlyOwner() {\n        require(msg.sender == owner, \"Only owner can perform this function\");\n        _;\n    }\n\n    modifier onlyAuthorizedProvider() {\n        require(authorizedProviders[msg.sender], \"Not an authorized provider\");\n        _;\n    }\n\n    constructor() {\n        owner = msg.sender;\n    }\n\n    function getOwner() public view returns (address) {\n        return owner;\n    }\n\n    function authorizeProvider(address provider) public onlyOwner {\n        authorizedProviders[provider] = true;\n\n    }\n\n\n    // Function to submit a symptom with consent (only for patients)\n    function submitSymptom(\n        bool _treatmentConsent,\n        bool _referralConsent,\n        bool _researchConsent,\n        string memory _role\n    ) public {\n        // Store the consent information in the mapping\n        userConsent[msg.sender] = Consent({\n            treatment: _treatmentConsent,\n            referral: _referralConsent,\n            research: _researchConsent\n        });\n\n        // Emit the event logging the action and consent\n        emit PatientLogged(\n            msg.sender,\n            _role,                          // Role passed as a parameter\n            \"submit_symptom\",               // Action type: submit_symptom\n            block.timestamp,                // Timestamp of the action\n            userConsent[msg.sender]         // The consent granted\n        );\n    }\n\n    // Function for a doctor to add a diagnosis (requires a valid doctor role)\n    function addDiagnosis(address user, string memory _role) public onlyAuthorizedProvider {\n        emit ActionLogged(\n            user, \n            _role, \n            \"add_diagnosis\", \n            block.timestamp\n            );\n    }\n\n    // Function for referring a patient to another doctor (requires a valid doctor role)\n    function referToDoctor(address user, string memory _role) public onlyAuthorizedProvider {\n        emit ActionLogged(\n            user, \n            _role, \n            \"refer_to_doctor\", \n            block.timestamp);\n    }\n\n    // Function for assigning a test to the lab (requires a valid doctor role)\n    function assignTest(address user, string memory _role) public onlyAuthorizedProvider {\n        emit ActionLogged(\n            user, \n            _role, \n            \"assign_test\", \n            block.timestamp);\n    }\n\n    // Function for lab staff to update test results (requires a valid lab staff role)\n    function updateTestResults(address user, string memory _role) public onlyAuthorizedProvider {\n        emit ActionLogged(\n            user, \n            _role, \n            \"update_test_results\", \n            block.timestamp);\n    }\n}\n",
  "sourcePath": "contracts/LogAudits.sol",
  "type": "contract"
}