{
  "contractName": "LogAudits",
  "abi": [
    {
      "anonymous": false,
      "inputs": [
        {
          "indexed": true,
          "internalType": "address",
          "name": "user",
          "type": "address"
        },
        {
          "indexed": false,
          "internalType": "string",
          "name": "role",
          "type": "string"
        },
        {
          "indexed": false,
          "internalType": "string",
          "name": "action_type",
          "type": "string"
        },
        {
          "indexed": false,
          "internalType": "uint256",
          "name": "created_at",
          "type": "uint256"
        }
      ],
      "name": "ActionLogged",
      "type": "event"
    },
    {
      "anonymous": false,
      "inputs": [
        {
          "indexed": true,
          "internalType": "address",
          "name": "user",
          "type": "address"
        },
        {
          "indexed": false,
          "internalType": "string",
          "name": "role",
          "type": "string"
        },
        {
          "indexed": false,
          "internalType": "string",
          "name": "action_type",
          "type": "string"
        },
        {
          "indexed": false,
          "internalType": "uint256",
          "name": "created_at",
          "type": "uint256"
        },
        {
          "indexed": false,
          "internalType": "bool",
          "name": "treatment",
          "type": "bool"
        },
        {
          "indexed": false,
          "internalType": "bool",
          "name": "referral",
          "type": "bool"
        },
        {
          "indexed": false,
          "internalType": "bool",
          "name": "research",
          "type": "bool"
        }
      ],
      "name": "PatientLogged",
      "type": "event"
    },
    {
      "inputs": [
        {
          "internalType": "bool",
          "name": "_treatmentConsent",
          "type": "bool"
        },
        {
          "internalType": "bool",
          "name": "_referralConsent",
          "type": "bool"
        },
        {
          "internalType": "bool",
          "name": "_researchConsent",
          "type": "bool"
        },
        {
          "internalType": "string",
          "name": "_role",
          "type": "string"
        }
      ],
      "name": "submitSymptom",
      "outputs": [],
      "stateMutability": "nonpayable",
      "type": "function"
    },
    {
      "inputs": [
        {
          "internalType": "string",
          "name": "_role",
          "type": "string"
        }
      ],
      "name": "addDiagnosis",
      "outputs": [],
      "stateMutability": "nonpayable",
      "type": "function"
    },
    {
      "inputs": [
        {
          "internalType": "string",
          "name": "_role",
          "type": "string"
        }
      ],
      "name": "referToDoctor",
      "outputs": [],
      "stateMutability": "nonpayable",
      "type": "function"
    },
    {
      "inputs": [
        {
          "internalType": "string",
          "name": "_role",
          "type": "string"
        }
      ],
      "name": "assignTest",
      "outputs": [],
      "stateMutability": "nonpayable",
      "type": "function"
    },
    {
      "inputs": [
        {
          "internalType": "string",
          "name": "_role",
          "type": "string"
        }
      ],
      "name": "updateTestResults",
      "outputs": [],
      "stateMutability": "nonpayable",
      "type": "function"
    }
  ],
  "bytecode": "0x608060405234801561001057600080fd5b506108fd806100206000396000f3fe608060405234801561001057600080fd5b50600436106100575760003560e01c806307a163451461005c5780638fd1fd1014610078578063c2b81ea314610094578063ec99c7ea146100b0578063f9856fd1146100cc575b600080fd5b6100766004803603810190610071919061044a565b6100e8565b005b610092600480360381019061008d91906103cf565b61013b565b005b6100ae60048036038101906100a9919061044a565b610259565b005b6100ca60048036038101906100c5919061044a565b6102ac565b005b6100e660048036038101906100e1919061044a565b6102ff565b005b3373ffffffffffffffffffffffffffffffffffffffff167f5b56e6ffbe95b7f92c787b65102287621b8b2f70e10bdf8c52f38ba60adaadfe8242604051610130929190610758565b60405180910390a250565b6040518060600160405280851515815260200184151581526020018315158152506000803373ffffffffffffffffffffffffffffffffffffffff1673ffffffffffffffffffffffffffffffffffffffff16815260200190815260200160002060008201518160000160006101000a81548160ff02191690831515021790555060208201518160000160016101000a81548160ff02191690831515021790555060408201518160000160026101000a81548160ff0219169083151502179055509050503373ffffffffffffffffffffffffffffffffffffffff167f6ef6696e0d07f5c45d8154742f77faacf863bf4a6c11d1411dc5cf283da61c92824287878760405161024b9594939291906106eb565b60405180910390a250505050565b3373ffffffffffffffffffffffffffffffffffffffff167f5b56e6ffbe95b7f92c787b65102287621b8b2f70e10bdf8c52f38ba60adaadfe82426040516102a1929190610622565b60405180910390a250565b3373ffffffffffffffffffffffffffffffffffffffff167f5b56e6ffbe95b7f92c787b65102287621b8b2f70e10bdf8c52f38ba60adaadfe82426040516102f49291906106a8565b60405180910390a250565b3373ffffffffffffffffffffffffffffffffffffffff167f5b56e6ffbe95b7f92c787b65102287621b8b2f70e10bdf8c52f38ba60adaadfe8242604051610347929190610665565b60405180910390a250565b6000610365610360846107cc565b61079b565b90508281526020810184848401111561037d57600080fd5b61038884828561082e565b509392505050565b60008135905061039f816108b0565b92915050565b600082601f8301126103b657600080fd5b81356103c6848260208601610352565b91505092915050565b600080600080608085870312156103e557600080fd5b60006103f387828801610390565b945050602061040487828801610390565b935050604061041587828801610390565b925050606085013567ffffffffffffffff81111561043257600080fd5b61043e878288016103a5565b91505092959194509250565b60006020828403121561045c57600080fd5b600082013567ffffffffffffffff81111561047657600080fd5b610482848285016103a5565b91505092915050565b61049481610818565b82525050565b60006104a5826107fc565b6104af8185610807565b93506104bf81856020860161083d565b6104c88161089f565b840191505092915050565b60006104e0601383610807565b91507f7570646174655f746573745f726573756c7473000000000000000000000000006000830152602082019050919050565b6000610520600b83610807565b91507f61737369676e5f746573740000000000000000000000000000000000000000006000830152602082019050919050565b6000610560600f83610807565b91507f72656665725f746f5f646f63746f7200000000000000000000000000000000006000830152602082019050919050565b60006105a0600e83610807565b91507f7375626d69745f73796d70746f6d0000000000000000000000000000000000006000830152602082019050919050565b60006105e0600d83610807565b91507f6164645f646961676e6f736973000000000000000000000000000000000000006000830152602082019050919050565b61061c81610824565b82525050565b6000606082019050818103600083015261063c818561049a565b9050818103602083015261064f816104d3565b905061065e6040830184610613565b9392505050565b6000606082019050818103600083015261067f818561049a565b9050818103602083015261069281610513565b90506106a16040830184610613565b9392505050565b600060608201905081810360008301526106c2818561049a565b905081810360208301526106d581610553565b90506106e46040830184610613565b9392505050565b600060c0820190508181036000830152610705818861049a565b9050818103602083015261071881610593565b90506107276040830187610613565b610734606083018661048b565b610741608083018561048b565b61074e60a083018461048b565b9695505050505050565b60006060820190508181036000830152610772818561049a565b90508181036020830152610785816105d3565b90506107946040830184610613565b9392505050565b6000604051905081810181811067ffffffffffffffff821117156107c2576107c1610870565b5b8060405250919050565b600067ffffffffffffffff8211156107e7576107e6610870565b5b601f19601f8301169050602081019050919050565b600081519050919050565b600082825260208201905092915050565b60008115159050919050565b6000819050919050565b82818337600083830152505050565b60005b8381101561085b578082015181840152602081019050610840565b8381111561086a576000848401525b50505050565b7f4e487b7100000000000000000000000000000000000000000000000000000000600052604160045260246000fd5b6000601f19601f8301169050919050565b6108b981610818565b81146108c457600080fd5b5056fea264697066735822122004be8fd30fe78391a907cf433402cac7f552e92ce551228113d3927879888a1164736f6c63430008000033",
  "immutableReferences": {},
  "source": "// SPDX-License-Identifier: MIT\npragma solidity ^0.8.0;\n\ncontract LogAudits {\n    // Define the struct for consent information\n    struct Consent {\n        bool treatment;\n        bool referral;\n        bool research;\n    }\n\n    // Mapping to store consent data for each user (address)\n    mapping(address => Consent) private userConsent;\n    // Mapping to store authorized addresses (providers can be doctors, lab staff, etc.)\n    mapping(address => bool) private authorizedProviders;\n\n    // Define the structure of the event\n    event PatientLogged(\n        address indexed user,\n        string role,\n        string action_type,\n        uint256 created_at,\n        bool treatment,\n        bool referral,\n        bool research\n    );\n\n    event ActionLogged(\n        address indexed user, // The user performing the action\n        string role, // Role of the user (e.g., patient, doctor, lab staff)\n        string action_type, // The type of action (e.g., submit_symptom, add_diagnosis)\n        uint256 created_at\n    );\n\n    // Function to submit a symptom with consent (only for patients)\n    function submitSymptom(\n        bool _treatmentConsent,\n        bool _referralConsent,\n        bool _researchConsent,\n        string memory _role\n    ) public {\n        //  Optional: store the consent on-chain\n        userConsent[msg.sender] = Consent({\n            treatment: _treatmentConsent,\n            referral: _referralConsent,\n            research: _researchConsent\n        });\n\n        //  Emit the flattened event\n        emit PatientLogged(\n            msg.sender,\n            _role,\n            \"submit_symptom\",\n            block.timestamp,\n            _treatmentConsent,\n            _referralConsent,\n            _researchConsent\n        );\n    }\n\n    // Function for a doctor to add a diagnosis (requires a valid doctor role)\n    function addDiagnosis(string memory _role) public {\n        emit ActionLogged(msg.sender, _role, \"add_diagnosis\", block.timestamp);\n    }\n\n    // Function for referring a patient to another doctor (requires a valid doctor role)\n    function referToDoctor(string memory _role) public {\n        emit ActionLogged(\n            msg.sender,\n            _role,\n            \"refer_to_doctor\",\n            block.timestamp\n        );\n    }\n\n    // Function for assigning a test to the lab (requires a valid doctor role)\n    function assignTest(string memory _role) public {\n        emit ActionLogged(msg.sender, _role, \"assign_test\", block.timestamp);\n    }\n\n    // Function for lab staff to update test results (requires a valid lab staff role)\n    function updateTestResults(string memory _role) public {\n        emit ActionLogged(\n            msg.sender,\n            _role,\n            \"update_test_results\",\n            block.timestamp\n        );\n    }\n}\n",
  "sourcePath": "/Users/arisnguyen/myapp/blockchain/contracts/LogAudits.sol",
  "compiler": {
    "name": "solc",
    "version": "0.8.0+commit.c7dfd78e.Emscripten.clang"
  },
  "schemaVersion": "3.4.16",
  "updatedAt": "2025-09-10T19:58:16.187Z",
  "networkType": "ethereum",
  "devdoc": {
    "kind": "dev",
    "methods": {},
    "version": 1
  },
  "userdoc": {
    "kind": "user",
    "methods": {},
    "version": 1
  }
}