{
  "abi": [
    {
      "anonymous": false,
      "inputs": [
        {
          "indexed": true,
          "internalType": "address",
          "name": "user",
          "type": "address"
        },
        {
          "indexed": false,
          "internalType": "string",
          "name": "role",
          "type": "string"
        },
        {
          "indexed": false,
          "internalType": "string",
          "name": "action_type",
          "type": "string"
        },
        {
          "indexed": false,
          "internalType": "uint256",
          "name": "created_at",
          "type": "uint256"
        }
      ],
      "name": "ActionLogged",
      "type": "event"
    },
    {
      "anonymous": false,
      "inputs": [
        {
          "indexed": true,
          "internalType": "address",
          "name": "user",
          "type": "address"
        },
        {
          "indexed": false,
          "internalType": "string",
          "name": "role",
          "type": "string"
        },
        {
          "indexed": false,
          "internalType": "string",
          "name": "action_type",
          "type": "string"
        },
        {
          "indexed": false,
          "internalType": "uint256",
          "name": "created_at",
          "type": "uint256"
        },
        {
          "components": [
            {
              "internalType": "bool",
              "name": "treatment",
              "type": "bool"
            },
            {
              "internalType": "bool",
              "name": "referral",
              "type": "bool"
            },
            {
              "internalType": "bool",
              "name": "research",
              "type": "bool"
            }
          ],
          "indexed": false,
          "internalType": "struct LogAudits.Consent",
          "name": "granted_consent",
          "type": "tuple"
        }
      ],
      "name": "PatientLogged",
      "type": "event"
    },
    {
      "inputs": [
        {
          "internalType": "string",
          "name": "_role",
          "type": "string"
        }
      ],
      "name": "addDiagnosis",
      "outputs": [],
      "stateMutability": "nonpayable",
      "type": "function"
    },
    {
      "inputs": [
        {
          "internalType": "string",
          "name": "_role",
          "type": "string"
        }
      ],
      "name": "assignTest",
      "outputs": [],
      "stateMutability": "nonpayable",
      "type": "function"
    },
    {
      "inputs": [
        {
          "internalType": "string",
          "name": "_role",
          "type": "string"
        }
      ],
      "name": "referToDoctor",
      "outputs": [],
      "stateMutability": "nonpayable",
      "type": "function"
    },
    {
      "inputs": [
        {
          "internalType": "bool",
          "name": "_treatmentConsent",
          "type": "bool"
        },
        {
          "internalType": "bool",
          "name": "_referralConsent",
          "type": "bool"
        },
        {
          "internalType": "bool",
          "name": "_researchConsent",
          "type": "bool"
        },
        {
          "internalType": "string",
          "name": "_role",
          "type": "string"
        }
      ],
      "name": "submitSymptom",
      "outputs": [],
      "stateMutability": "nonpayable",
      "type": "function"
    },
    {
      "inputs": [
        {
          "internalType": "string",
          "name": "_role",
          "type": "string"
        }
      ],
      "name": "updateTestResults",
      "outputs": [],
      "stateMutability": "nonpayable",
      "type": "function"
    }
  ],
  "bytecode": "6080604052348015600f57600080fd5b506105b68061001f6000396000f3fe608060405234801561001057600080fd5b50600436106100575760003560e01c806307a163451461005c5780638fd1fd1014610071578063c2b81ea314610084578063ec99c7ea14610097578063f9856fd1146100aa575b600080fd5b61006f61006a3660046102ba565b6100bd565b005b61006f61007f36600461030c565b6100f1565b61006f6100923660046102ba565b61019a565b61006f6100a53660046102ba565b6101c3565b61006f6100b83660046102ba565b6101ec565b336001600160a01b031660008051602061056183398151915282426040516100e69291906103c1565b60405180910390a250565b6040805160608101825285151581528415156020808301918252851515838501908152336000818152928390529185902093518454935191511515620100000262ff0000199215156101000261ff00199215159290921661ffff1990951694909417171691909117825591517fbaf4064c4bce11ab1664ab198d1f4c3902389a7fe4a40279db2d522716fb729b9161018c918591429161040a565b60405180910390a250505050565b336001600160a01b031660008051602061056183398151915282426040516100e692919061047f565b336001600160a01b031660008051602061056183398151915282426040516100e69291906104ce565b336001600160a01b031660008051602061056183398151915282426040516100e6929190610519565b634e487b7160e01b600052604160045260246000fd5b600082601f83011261023c57600080fd5b813567ffffffffffffffff81111561025657610256610215565b604051601f8201601f19908116603f0116810167ffffffffffffffff8111828210171561028557610285610215565b60405281815283820160200185101561029d57600080fd5b816020850160208301376000918101602001919091529392505050565b6000602082840312156102cc57600080fd5b813567ffffffffffffffff8111156102e357600080fd5b6102ef8482850161022b565b949350505050565b8035801515811461030757600080fd5b919050565b6000806000806080858703121561032257600080fd5b61032b856102f7565b9350610339602086016102f7565b9250610347604086016102f7565b9150606085013567ffffffffffffffff81111561036357600080fd5b61036f8782880161022b565b91505092959194509250565b6000815180845260005b818110156103a157602081850181015186830182015201610385565b506000602082860101526020601f19601f83011685010191505092915050565b6060815260006103d4606083018561037b565b8281036020840152600d81526c6164645f646961676e6f73697360981b6020820152604081019150508260408301529392505050565b60c08152600061041d60c083018661037b565b8281036020840152600e81526d7375626d69745f73796d70746f6d60901b602082015260408101915050836040830152825460ff81161515606084015260ff8160081c161515608084015260ff8160101c16151560a084015250949350505050565b606081526000610492606083018561037b565b828103602084015260138152727570646174655f746573745f726573756c747360681b6020820152604081019150508260408301529392505050565b6060815260006104e1606083018561037b565b8281036020840152600f81526e3932b332b92fba37afb237b1ba37b960891b6020820152604081019150508260408301529392505050565b60608152600061052c606083018561037b565b8281036020840152600b81526a185cdcda59db97dd195cdd60aa1b602082015260408101915050826040830152939250505056fe5b56e6ffbe95b7f92c787b65102287621b8b2f70e10bdf8c52f38ba60adaadfea2646970667358221220ceca09f74b461b50b1dd7d7cb330b05c953f8dc39cb600f80b7ab11766a5b52964736f6c634300081e0033",
  "bytecodeSha1": "5201078fb961df1149de54b2aa969555779b773f",
  "compiler": {
    "evm_version": "istanbul",
    "optimizer": {
      "enabled": true,
      "runs": 200
    },
    "version": "0.8.30+commit.73712a01"
  },
  "contractName": "LogAudits",
  "language": "Solidity",
  "natspec": {
    "kind": "dev",
    "methods": {},
    "version": 1
  },
  "opcodes": "PUSH1 0x80 PUSH1 0x40 MSTORE CALLVALUE DUP1 ISZERO PUSH2 0x10 JUMPI PUSH1 0x0 DUP1 REVERT JUMPDEST POP PUSH1 0x4 CALLDATASIZE LT PUSH2 0x57 JUMPI PUSH1 0x0 CALLDATALOAD PUSH1 0xE0 SHR DUP1 PUSH4 0x7A16345 EQ PUSH2 0x5C JUMPI DUP1 PUSH4 0x8FD1FD10 EQ PUSH2 0x71 JUMPI DUP1 PUSH4 0xC2B81EA3 EQ PUSH2 0x84 JUMPI DUP1 PUSH4 0xEC99C7EA EQ PUSH2 0x97 JUMPI DUP1 PUSH4 0xF9856FD1 EQ PUSH2 0xAA JUMPI JUMPDEST PUSH1 0x0 DUP1 REVERT JUMPDEST PUSH2 0x6F PUSH2 0x6A CALLDATASIZE PUSH1 0x4 PUSH2 0x2BA JUMP JUMPDEST PUSH2 0xBD JUMP JUMPDEST STOP JUMPDEST PUSH2 0x6F PUSH2 0x7F CALLDATASIZE PUSH1 0x4 PUSH2 0x30C JUMP JUMPDEST PUSH2 0xF1 JUMP JUMPDEST PUSH2 0x6F PUSH2 0x92 CALLDATASIZE PUSH1 0x4 PUSH2 0x2BA JUMP JUMPDEST PUSH2 0x19A JUMP JUMPDEST PUSH2 0x6F PUSH2 0xA5 CALLDATASIZE PUSH1 0x4 PUSH2 0x2BA JUMP JUMPDEST PUSH2 0x1C3 JUMP JUMPDEST PUSH2 0x6F PUSH2 0xB8 CALLDATASIZE PUSH1 0x4 PUSH2 0x2BA JUMP JUMPDEST PUSH2 0x1EC JUMP JUMPDEST CALLER PUSH1 0x1 PUSH1 0x1 PUSH1 0xA0 SHL SUB AND PUSH1 0x0 DUP1 MLOAD PUSH1 0x20 PUSH2 0x561 DUP4 CODECOPY DUP2 MLOAD SWAP2 MSTORE DUP3 TIMESTAMP PUSH1 0x40 MLOAD PUSH2 0xE6 SWAP3 SWAP2 SWAP1 PUSH2 0x3C1 JUMP JUMPDEST PUSH1 0x40 MLOAD DUP1 SWAP2 SUB SWAP1 LOG2 POP JUMP JUMPDEST PUSH1 0x40 DUP1 MLOAD PUSH1 0x60 DUP2 ADD DUP3 MSTORE DUP6 ISZERO ISZERO DUP2 MSTORE DUP5 ISZERO ISZERO PUSH1 0x20 DUP1 DUP4 ADD SWAP2 DUP3 MSTORE DUP6 ISZERO ISZERO DUP4 DUP6 ADD SWAP1 DUP2 MSTORE CALLER PUSH1 0x0 DUP2 DUP2 MSTORE SWAP3 DUP4 SWAP1 MSTORE SWAP2 DUP6 SWAP1 KECCAK256 SWAP4 MLOAD DUP5 SLOAD SWAP4 MLOAD SWAP2 MLOAD ISZERO ISZERO PUSH3 0x10000 MUL PUSH3 0xFF0000 NOT SWAP3 ISZERO ISZERO PUSH2 0x100 MUL PUSH2 0xFF00 NOT SWAP3 ISZERO ISZERO SWAP3 SWAP1 SWAP3 AND PUSH2 0xFFFF NOT SWAP1 SWAP6 AND SWAP5 SWAP1 SWAP5 OR OR AND SWAP2 SWAP1 SWAP2 OR DUP3 SSTORE SWAP2 MLOAD PUSH32 0xBAF4064C4BCE11AB1664AB198D1F4C3902389A7FE4A40279DB2D522716FB729B SWAP2 PUSH2 0x18C SWAP2 DUP6 SWAP2 TIMESTAMP SWAP2 PUSH2 0x40A JUMP JUMPDEST PUSH1 0x40 MLOAD DUP1 SWAP2 SUB SWAP1 LOG2 POP POP POP POP JUMP JUMPDEST CALLER PUSH1 0x1 PUSH1 0x1 PUSH1 0xA0 SHL SUB AND PUSH1 0x0 DUP1 MLOAD PUSH1 0x20 PUSH2 0x561 DUP4 CODECOPY DUP2 MLOAD SWAP2 MSTORE DUP3 TIMESTAMP PUSH1 0x40 MLOAD PUSH2 0xE6 SWAP3 SWAP2 SWAP1 PUSH2 0x47F JUMP JUMPDEST CALLER PUSH1 0x1 PUSH1 0x1 PUSH1 0xA0 SHL SUB AND PUSH1 0x0 DUP1 MLOAD PUSH1 0x20 PUSH2 0x561 DUP4 CODECOPY DUP2 MLOAD SWAP2 MSTORE DUP3 TIMESTAMP PUSH1 0x40 MLOAD PUSH2 0xE6 SWAP3 SWAP2 SWAP1 PUSH2 0x4CE JUMP JUMPDEST CALLER PUSH1 0x1 PUSH1 0x1 PUSH1 0xA0 SHL SUB AND PUSH1 0x0 DUP1 MLOAD PUSH1 0x20 PUSH2 0x561 DUP4 CODECOPY DUP2 MLOAD SWAP2 MSTORE DUP3 TIMESTAMP PUSH1 0x40 MLOAD PUSH2 0xE6 SWAP3 SWAP2 SWAP1 PUSH2 0x519 JUMP JUMPDEST PUSH4 0x4E487B71 PUSH1 0xE0 SHL PUSH1 0x0 MSTORE PUSH1 0x41 PUSH1 0x4 MSTORE PUSH1 0x24 PUSH1 0x0 REVERT JUMPDEST PUSH1 0x0 DUP3 PUSH1 0x1F DUP4 ADD SLT PUSH2 0x23C JUMPI PUSH1 0x0 DUP1 REVERT JUMPDEST DUP2 CALLDATALOAD PUSH8 0xFFFFFFFFFFFFFFFF DUP2 GT ISZERO PUSH2 0x256 JUMPI PUSH2 0x256 PUSH2 0x215 JUMP JUMPDEST PUSH1 0x40 MLOAD PUSH1 0x1F DUP3 ADD PUSH1 0x1F NOT SWAP1 DUP2 AND PUSH1 0x3F ADD AND DUP2 ADD PUSH8 0xFFFFFFFFFFFFFFFF DUP2 GT DUP3 DUP3 LT OR ISZERO PUSH2 0x285 JUMPI PUSH2 0x285 PUSH2 0x215 JUMP JUMPDEST PUSH1 0x40 MSTORE DUP2 DUP2 MSTORE DUP4 DUP3 ADD PUSH1 0x20 ADD DUP6 LT ISZERO PUSH2 0x29D JUMPI PUSH1 0x0 DUP1 REVERT JUMPDEST DUP2 PUSH1 0x20 DUP6 ADD PUSH1 0x20 DUP4 ADD CALLDATACOPY PUSH1 0x0 SWAP2 DUP2 ADD PUSH1 0x20 ADD SWAP2 SWAP1 SWAP2 MSTORE SWAP4 SWAP3 POP POP POP JUMP JUMPDEST PUSH1 0x0 PUSH1 0x20 DUP3 DUP5 SUB SLT ISZERO PUSH2 0x2CC JUMPI PUSH1 0x0 DUP1 REVERT JUMPDEST DUP2 CALLDATALOAD PUSH8 0xFFFFFFFFFFFFFFFF DUP2 GT ISZERO PUSH2 0x2E3 JUMPI PUSH1 0x0 DUP1 REVERT JUMPDEST PUSH2 0x2EF DUP5 DUP3 DUP6 ADD PUSH2 0x22B JUMP JUMPDEST SWAP5 SWAP4 POP POP POP POP JUMP JUMPDEST DUP1 CALLDATALOAD DUP1 ISZERO ISZERO DUP2 EQ PUSH2 0x307 JUMPI PUSH1 0x0 DUP1 REVERT JUMPDEST SWAP2 SWAP1 POP JUMP JUMPDEST PUSH1 0x0 DUP1 PUSH1 0x0 DUP1 PUSH1 0x80 DUP6 DUP8 SUB SLT ISZERO PUSH2 0x322 JUMPI PUSH1 0x0 DUP1 REVERT JUMPDEST PUSH2 0x32B DUP6 PUSH2 0x2F7 JUMP JUMPDEST SWAP4 POP PUSH2 0x339 PUSH1 0x20 DUP7 ADD PUSH2 0x2F7 JUMP JUMPDEST SWAP3 POP PUSH2 0x347 PUSH1 0x40 DUP7 ADD PUSH2 0x2F7 JUMP JUMPDEST SWAP2 POP PUSH1 0x60 DUP6 ADD CALLDATALOAD PUSH8 0xFFFFFFFFFFFFFFFF DUP2 GT ISZERO PUSH2 0x363 JUMPI PUSH1 0x0 DUP1 REVERT JUMPDEST PUSH2 0x36F DUP8 DUP3 DUP9 ADD PUSH2 0x22B JUMP JUMPDEST SWAP2 POP POP SWAP3 SWAP6 SWAP2 SWAP5 POP SWAP3 POP JUMP JUMPDEST PUSH1 0x0 DUP2 MLOAD DUP1 DUP5 MSTORE PUSH1 0x0 JUMPDEST DUP2 DUP2 LT ISZERO PUSH2 0x3A1 JUMPI PUSH1 0x20 DUP2 DUP6 ADD DUP2 ADD MLOAD DUP7 DUP4 ADD DUP3 ADD MSTORE ADD PUSH2 0x385 JUMP JUMPDEST POP PUSH1 0x0 PUSH1 0x20 DUP3 DUP7 ADD ADD MSTORE PUSH1 0x20 PUSH1 0x1F NOT PUSH1 0x1F DUP4 ADD AND DUP6 ADD ADD SWAP2 POP POP SWAP3 SWAP2 POP POP JUMP JUMPDEST PUSH1 0x60 DUP2 MSTORE PUSH1 0x0 PUSH2 0x3D4 PUSH1 0x60 DUP4 ADD DUP6 PUSH2 0x37B JUMP JUMPDEST DUP3 DUP2 SUB PUSH1 0x20 DUP5 ADD MSTORE PUSH1 0xD DUP2 MSTORE PUSH13 0x6164645F646961676E6F736973 PUSH1 0x98 SHL PUSH1 0x20 DUP3 ADD MSTORE PUSH1 0x40 DUP2 ADD SWAP2 POP POP DUP3 PUSH1 0x40 DUP4 ADD MSTORE SWAP4 SWAP3 POP POP POP JUMP JUMPDEST PUSH1 0xC0 DUP2 MSTORE PUSH1 0x0 PUSH2 0x41D PUSH1 0xC0 DUP4 ADD DUP7 PUSH2 0x37B JUMP JUMPDEST DUP3 DUP2 SUB PUSH1 0x20 DUP5 ADD MSTORE PUSH1 0xE DUP2 MSTORE PUSH14 0x7375626D69745F73796D70746F6D PUSH1 0x90 SHL PUSH1 0x20 DUP3 ADD MSTORE PUSH1 0x40 DUP2 ADD SWAP2 POP POP DUP4 PUSH1 0x40 DUP4 ADD MSTORE DUP3 SLOAD PUSH1 0xFF DUP2 AND ISZERO ISZERO PUSH1 0x60 DUP5 ADD MSTORE PUSH1 0xFF DUP2 PUSH1 0x8 SHR AND ISZERO ISZERO PUSH1 0x80 DUP5 ADD MSTORE PUSH1 0xFF DUP2 PUSH1 0x10 SHR AND ISZERO ISZERO PUSH1 0xA0 DUP5 ADD MSTORE POP SWAP5 SWAP4 POP POP POP POP JUMP JUMPDEST PUSH1 0x60 DUP2 MSTORE PUSH1 0x0 PUSH2 0x492 PUSH1 0x60 DUP4 ADD DUP6 PUSH2 0x37B JUMP JUMPDEST DUP3 DUP2 SUB PUSH1 0x20 DUP5 ADD MSTORE PUSH1 0x13 DUP2 MSTORE PUSH19 0x7570646174655F746573745F726573756C7473 PUSH1 0x68 SHL PUSH1 0x20 DUP3 ADD MSTORE PUSH1 0x40 DUP2 ADD SWAP2 POP POP DUP3 PUSH1 0x40 DUP4 ADD MSTORE SWAP4 SWAP3 POP POP POP JUMP JUMPDEST PUSH1 0x60 DUP2 MSTORE PUSH1 0x0 PUSH2 0x4E1 PUSH1 0x60 DUP4 ADD DUP6 PUSH2 0x37B JUMP JUMPDEST DUP3 DUP2 SUB PUSH1 0x20 DUP5 ADD MSTORE PUSH1 0xF DUP2 MSTORE PUSH15 0x3932B332B92FBA37AFB237B1BA37B9 PUSH1 0x89 SHL PUSH1 0x20 DUP3 ADD MSTORE PUSH1 0x40 DUP2 ADD SWAP2 POP POP DUP3 PUSH1 0x40 DUP4 ADD MSTORE SWAP4 SWAP3 POP POP POP JUMP JUMPDEST PUSH1 0x60 DUP2 MSTORE PUSH1 0x0 PUSH2 0x52C PUSH1 0x60 DUP4 ADD DUP6 PUSH2 0x37B JUMP JUMPDEST DUP3 DUP2 SUB PUSH1 0x20 DUP5 ADD MSTORE PUSH1 0xB DUP2 MSTORE PUSH11 0x185CDCDA59DB97DD195CDD PUSH1 0xAA SHL PUSH1 0x20 DUP3 ADD MSTORE PUSH1 0x40 DUP2 ADD SWAP2 POP POP DUP3 PUSH1 0x40 DUP4 ADD MSTORE SWAP4 SWAP3 POP POP POP JUMP INVALID JUMPDEST JUMP DUPN 0xFF 0xBE SWAP6 0xB7 EXTDELEGATECALL 0x2C PUSH25 0x7B65102287621B8B2F70E10BDF8C52F38BA60ADAADFEA26469 PUSH17 0x667358221220CECA09F74B461B50B1DD7D PUSH29 0xB330B05C953F8DC39CB600F80B7AB11766A5B52964736F6C634300081E STOP CALLER ",
  "sha1": "1e3372623ce46ec3100da8cec203f435146e691c",
  "source": "// SPDX-License-Identifier: MIT\npragma solidity ^0.8.0;\n\ncontract LogAudits {\n    // Define the struct for consent information\n    struct Consent {\n        bool treatment;\n        bool referral;\n        bool research;\n    }\n\n    // Mapping to store consent data for each user (address)\n    mapping(address => Consent) private userConsent;\n    // Mapping to store authorized addresses (providers can be doctors, lab staff, etc.)\n    mapping(address => bool) private authorizedProviders;\n\n    // Define the structure of the event\n    event PatientLogged(\n        address indexed user,            // The user performing the action\n        string role,                     // Role of the user (e.g., patient, doctor, lab staff)\n        string action_type,              // The type of action (e.g., submit_symptom, add_diagnosis)\n        uint256 created_at,              // Timestamp of the action\n        Consent granted_consent          // Consent for the action (only used in submit_symptom)\n    );\n\n    event ActionLogged(\n        address indexed user,            // The user performing the action\n        string role,                     // Role of the user (e.g., patient, doctor, lab staff)\n        string action_type,              // The type of action (e.g., submit_symptom, add_diagnosis)\n        uint256 created_at\n    );\n\n\n    // Function to submit a symptom with consent (only for patients)\n    function submitSymptom(\n        bool _treatmentConsent,\n        bool _referralConsent,\n        bool _researchConsent,\n        string memory _role\n    ) public {\n        // Store the consent information in the mapping\n        userConsent[msg.sender] = Consent({\n            treatment: _treatmentConsent,\n            referral: _referralConsent,\n            research: _researchConsent\n        });\n\n        // Emit the event logging the action and consent\n        emit PatientLogged(\n            msg.sender,\n            _role,                          // Role passed as a parameter\n            \"submit_symptom\",               // Action type: submit_symptom\n            block.timestamp,                // Timestamp of the action\n            userConsent[msg.sender]         // The consent granted\n        );\n    }\n\n    // Function for a doctor to add a diagnosis (requires a valid doctor role)\n    function addDiagnosis(string memory _role) public {\n        emit ActionLogged(\n            msg.sender, \n            _role, \n            \"add_diagnosis\", \n            block.timestamp\n            );\n    }\n\n    // Function for referring a patient to another doctor (requires a valid doctor role)\n    function referToDoctor(string memory _role) public {\n        emit ActionLogged(\n            msg.sender,\n            _role, \n            \"refer_to_doctor\", \n            block.timestamp);\n    }\n\n    // Function for assigning a test to the lab (requires a valid doctor role)\n    function assignTest(string memory _role) public {\n        emit ActionLogged(\n            msg.sender, \n            _role, \n            \"assign_test\", \n            block.timestamp);\n    }\n\n    // Function for lab staff to update test results (requires a valid lab staff role)\n    function updateTestResults(string memory _role) public {\n        emit ActionLogged(\n            msg.sender, \n            _role, \n            \"update_test_results\", \n            block.timestamp);\n    }\n}\n",
  "sourcePath": "contracts/LogAudits.sol",
  "type": "contract"
}