{"abi":[{"anonymous":false,"inputs":[{"indexed":true,"internalType":"address","name":"patient","type":"address"},{"indexed":false,"internalType":"string","name":"symptomDescription","type":"string"},{"indexed":false,"internalType":"uint256","name":"timestamp","type":"uint256"},{"indexed":false,"internalType":"bool","name":"treatmentConsent","type":"bool"},{"indexed":false,"internalType":"bool","name":"referralConsent","type":"bool"},{"indexed":false,"internalType":"bool","name":"researchConsent","type":"bool"}],"name":"SymptomSubmitted","type":"event"},{"inputs":[{"internalType":"address","name":"","type":"address"},{"internalType":"uint256","name":"","type":"uint256"}],"name":"patientSymptoms","outputs":[{"internalType":"string","name":"symptomDescription","type":"string"},{"internalType":"uint256","name":"submittedAt","type":"uint256"},{"internalType":"address","name":"patient","type":"address"},{"internalType":"bool","name":"treatmentConsent","type":"bool"},{"internalType":"bool","name":"referralConsent","type":"bool"},{"internalType":"bool","name":"researchConsent","type":"bool"}],"stateMutability":"view","type":"function"},{"inputs":[{"internalType":"string","name":"_symptomDescription","type":"string"},{"internalType":"bool","name":"_treatmentConsent","type":"bool"},{"internalType":"bool","name":"_referralConsent","type":"bool"},{"internalType":"bool","name":"_researchConsent","type":"bool"}],"name":"submitSymptom","outputs":[],"stateMutability":"nonpayable","type":"function"},{"inputs":[{"internalType":"address","name":"_patient","type":"address"},{"internalType":"uint256","name":"_symptomIndex","type":"uint256"}],"name":"viewSymptom","outputs":[{"internalType":"string","name":"symptomDescription","type":"string"},{"internalType":"uint256","name":"submittedAt","type":"uint256"},{"internalType":"bool","name":"treatmentConsent","type":"bool"},{"internalType":"bool","name":"referralConsent","type":"bool"},{"internalType":"bool","name":"researchConsent","type":"bool"}],"stateMutability":"view","type":"function"}],"bytecode":"6080604052348015600f57600080fd5b506107ea8061001f6000396000f3fe608060405234801561001057600080fd5b50600436106100415760003560e01c806332d74d31146100465780634c49e2681461005b57806385a3789214610089575b600080fd5b61005961005436600461046b565b6100ad565b005b61006e610069366004610556565b6101d9565b604051610080969594939291906105d4565b60405180910390f35b61009c610097366004610556565b6102d1565b60405161008095949392919061061d565b6040805160c08101825285815242602080830191909152338284018190528615156060840152851515608084015284151560a084015260008181528083529384208054600181018255908552919093208251839260030290910190819061011490826106df565b5060208201516001820155604080830151600290920180546060850151608086015160a0909601511515600160b01b0260ff60b01b19961515600160a81b029690961661ffff60a81b19911515600160a01b026001600160a81b03199093166001600160a01b03909616959095179190911716929092179290921790555133907f6f26a3fdb4217f4993fbaa0432caf3c0850c348b6fee0538c15bfecaed6bc3f4906101c990899042908a908a908a9061061d565b60405180910390a2505050505050565b600060205281600052604060002081815481106101f557600080fd5b90600052602060002090600302016000915091505080600001805461021990610656565b80601f016020809104026020016040519081016040528092919081815260200182805461024590610656565b80156102925780601f1061026757610100808354040283529160200191610292565b820191906000526020600020905b81548152906001019060200180831161027557829003601f168201915b50505060018401546002909401549293926001600160a01b038116925060ff600160a01b820481169250600160a81b8204811691600160b01b90041686565b60606000806000806000806000896001600160a01b03166001600160a01b0316815260200190815260200160002087815481106103105761031061079e565b90600052602060002090600302016040518060c001604052908160008201805461033990610656565b80601f016020809104026020016040519081016040528092919081815260200182805461036590610656565b80156103b25780601f10610387576101008083540402835291602001916103b2565b820191906000526020600020905b81548152906001019060200180831161039557829003601f168201915b505050918352505060018201546020808301919091526002909201546001600160a01b038116604083015260ff600160a01b820481161515606080850191909152600160a81b830482161515608080860191909152600160b01b909304909116151560a09384015284519385015190850151918501519490920151929c919b50995091975095509350505050565b634e487b7160e01b600052604160045260246000fd5b8035801515811461046657600080fd5b919050565b6000806000806080858703121561048157600080fd5b843567ffffffffffffffff81111561049857600080fd5b8501601f810187136104a957600080fd5b803567ffffffffffffffff8111156104c3576104c3610440565b604051601f8201601f19908116603f0116810167ffffffffffffffff811182821017156104f2576104f2610440565b60405281815282820160200189101561050a57600080fd5b8160208401602083013760006020838301015280965050505061052f60208601610456565b925061053d60408601610456565b915061054b60608601610456565b905092959194509250565b6000806040838503121561056957600080fd5b82356001600160a01b038116811461058057600080fd5b946020939093013593505050565b6000815180845260005b818110156105b457602081850181015186830182015201610598565b506000602082860101526020601f19601f83011685010191505092915050565b60c0815260006105e760c083018961058e565b6020830197909752506001600160a01b03949094166040850152911515606084015215156080830152151560a090910152919050565b60a08152600061063060a083018861058e565b602083019690965250921515604084015290151560608301521515608090910152919050565b600181811c9082168061066a57607f821691505b60208210810361068a57634e487b7160e01b600052602260045260246000fd5b50919050565b601f8211156106da57806000526020600020601f840160051c810160208510156106b75750805b601f840160051c820191505b818110156106d757600081556001016106c3565b50505b505050565b815167ffffffffffffffff8111156106f9576106f9610440565b61070d816107078454610656565b84610690565b6020601f82116001811461074157600083156107295750848201515b600019600385901b1c1916600184901b1784556106d7565b600084815260208120601f198516915b828110156107715787850151825560209485019460019092019101610751565b508482101561078f5786840151600019600387901b60f8161c191681555b50505050600190811b01905550565b634e487b7160e01b600052603260045260246000fdfea264697066735822122067c349050b12e752b7a2af576e25bd0ce2fea26248ac296b2282fdf9702108d264736f6c634300081e0033","bytecodeSha1":"3332d646ac53612e35a6f765c2b414ba6b77d22c","compiler":{"evm_version":"istanbul","optimizer":{"enabled":true,"runs":200},"version":"0.8.30+commit.73712a01"},"contractName":"LogAudits","language":"Solidity","natspec":{"kind":"dev","methods":{},"version":1},"opcodes":"PUSH1 0x80 PUSH1 0x40 MSTORE CALLVALUE DUP1 ISZERO PUSH2 0x10 JUMPI PUSH1 0x0 DUP1 REVERT JUMPDEST POP PUSH1 0x4 CALLDATASIZE LT PUSH2 0x41 JUMPI PUSH1 0x0 CALLDATALOAD PUSH1 0xE0 SHR DUP1 PUSH4 0x32D74D31 EQ PUSH2 0x46 JUMPI DUP1 PUSH4 0x4C49E268 EQ PUSH2 0x5B JUMPI DUP1 PUSH4 0x85A37892 EQ PUSH2 0x89 JUMPI JUMPDEST PUSH1 0x0 DUP1 REVERT JUMPDEST PUSH2 0x59 PUSH2 0x54 CALLDATASIZE PUSH1 0x4 PUSH2 0x46B JUMP JUMPDEST PUSH2 0xAD JUMP JUMPDEST STOP JUMPDEST PUSH2 0x6E PUSH2 0x69 CALLDATASIZE PUSH1 0x4 PUSH2 0x556 JUMP JUMPDEST PUSH2 0x1D9 JUMP JUMPDEST PUSH1 0x40 MLOAD PUSH2 0x80 SWAP7 SWAP6 SWAP5 SWAP4 SWAP3 SWAP2 SWAP1 PUSH2 0x5D4 JUMP JUMPDEST PUSH1 0x40 MLOAD DUP1 SWAP2 SUB SWAP1 RETURN JUMPDEST PUSH2 0x9C PUSH2 0x97 CALLDATASIZE PUSH1 0x4 PUSH2 0x556 JUMP JUMPDEST PUSH2 0x2D1 JUMP JUMPDEST PUSH1 0x40 MLOAD PUSH2 0x80 SWAP6 SWAP5 SWAP4 SWAP3 SWAP2 SWAP1 PUSH2 0x61D JUMP JUMPDEST PUSH1 0x40 DUP1 MLOAD PUSH1 0xC0 DUP2 ADD DUP3 MSTORE DUP6 DUP2 MSTORE TIMESTAMP PUSH1 0x20 DUP1 DUP4 ADD SWAP2 SWAP1 SWAP2 MSTORE CALLER DUP3 DUP5 ADD DUP2 SWAP1 MSTORE DUP7 ISZERO ISZERO PUSH1 0x60 DUP5 ADD MSTORE DUP6 ISZERO ISZERO PUSH1 0x80 DUP5 ADD MSTORE DUP5 ISZERO ISZERO PUSH1 0xA0 DUP5 ADD MSTORE PUSH1 0x0 DUP2 DUP2 MSTORE DUP1 DUP4 MSTORE SWAP4 DUP5 KECCAK256 DUP1 SLOAD PUSH1 0x1 DUP2 ADD DUP3 SSTORE SWAP1 DUP6 MSTORE SWAP2 SWAP1 SWAP4 KECCAK256 DUP3 MLOAD DUP4 SWAP3 PUSH1 0x3 MUL SWAP1 SWAP2 ADD SWAP1 DUP2 SWAP1 PUSH2 0x114 SWAP1 DUP3 PUSH2 0x6DF JUMP JUMPDEST POP PUSH1 0x20 DUP3 ADD MLOAD PUSH1 0x1 DUP3 ADD SSTORE PUSH1 0x40 DUP1 DUP4 ADD MLOAD PUSH1 0x2 SWAP1 SWAP3 ADD DUP1 SLOAD PUSH1 0x60 DUP6 ADD MLOAD PUSH1 0x80 DUP7 ADD MLOAD PUSH1 0xA0 SWAP1 SWAP7 ADD MLOAD ISZERO ISZERO PUSH1 0x1 PUSH1 0xB0 SHL MUL PUSH1 0xFF PUSH1 0xB0 SHL NOT SWAP7 ISZERO ISZERO PUSH1 0x1 PUSH1 0xA8 SHL MUL SWAP7 SWAP1 SWAP7 AND PUSH2 0xFFFF PUSH1 0xA8 SHL NOT SWAP2 ISZERO ISZERO PUSH1 0x1 PUSH1 0xA0 SHL MUL PUSH1 0x1 PUSH1 0x1 PUSH1 0xA8 SHL SUB NOT SWAP1 SWAP4 AND PUSH1 0x1 PUSH1 0x1 PUSH1 0xA0 SHL SUB SWAP1 SWAP7 AND SWAP6 SWAP1 SWAP6 OR SWAP2 SWAP1 SWAP2 OR AND SWAP3 SWAP1 SWAP3 OR SWAP3 SWAP1 SWAP3 OR SWAP1 SSTORE MLOAD CALLER SWAP1 PUSH32 0x6F26A3FDB4217F4993FBAA0432CAF3C0850C348B6FEE0538C15BFECAED6BC3F4 SWAP1 PUSH2 0x1C9 SWAP1 DUP10 SWAP1 TIMESTAMP SWAP1 DUP11 SWAP1 DUP11 SWAP1 DUP11 SWAP1 PUSH2 0x61D JUMP JUMPDEST PUSH1 0x40 MLOAD DUP1 SWAP2 SUB SWAP1 LOG2 POP POP POP POP POP POP JUMP JUMPDEST PUSH1 0x0 PUSH1 0x20 MSTORE DUP2 PUSH1 0x0 MSTORE PUSH1 0x40 PUSH1 0x0 KECCAK256 DUP2 DUP2 SLOAD DUP2 LT PUSH2 0x1F5 JUMPI PUSH1 0x0 DUP1 REVERT JUMPDEST SWAP1 PUSH1 0x0 MSTORE PUSH1 0x20 PUSH1 0x0 KECCAK256 SWAP1 PUSH1 0x3 MUL ADD PUSH1 0x0 SWAP2 POP SWAP2 POP POP DUP1 PUSH1 0x0 ADD DUP1 SLOAD PUSH2 0x219 SWAP1 PUSH2 0x656 JUMP JUMPDEST DUP1 PUSH1 0x1F ADD PUSH1 0x20 DUP1 SWAP2 DIV MUL PUSH1 0x20 ADD PUSH1 0x40 MLOAD SWAP1 DUP2 ADD PUSH1 0x40 MSTORE DUP1 SWAP3 SWAP2 SWAP1 DUP2 DUP2 MSTORE PUSH1 0x20 ADD DUP3 DUP1 SLOAD PUSH2 0x245 SWAP1 PUSH2 0x656 JUMP JUMPDEST DUP1 ISZERO PUSH2 0x292 JUMPI DUP1 PUSH1 0x1F LT PUSH2 0x267 JUMPI PUSH2 0x100 DUP1 DUP4 SLOAD DIV MUL DUP4 MSTORE SWAP2 PUSH1 0x20 ADD SWAP2 PUSH2 0x292 JUMP JUMPDEST DUP3 ADD SWAP2 SWAP1 PUSH1 0x0 MSTORE PUSH1 0x20 PUSH1 0x0 KECCAK256 SWAP1 JUMPDEST DUP2 SLOAD DUP2 MSTORE SWAP1 PUSH1 0x1 ADD SWAP1 PUSH1 0x20 ADD DUP1 DUP4 GT PUSH2 0x275 JUMPI DUP3 SWAP1 SUB PUSH1 0x1F AND DUP3 ADD SWAP2 JUMPDEST POP POP POP PUSH1 0x1 DUP5 ADD SLOAD PUSH1 0x2 SWAP1 SWAP5 ADD SLOAD SWAP3 SWAP4 SWAP3 PUSH1 0x1 PUSH1 0x1 PUSH1 0xA0 SHL SUB DUP2 AND SWAP3 POP PUSH1 0xFF PUSH1 0x1 PUSH1 0xA0 SHL DUP3 DIV DUP2 AND SWAP3 POP PUSH1 0x1 PUSH1 0xA8 SHL DUP3 DIV DUP2 AND SWAP2 PUSH1 0x1 PUSH1 0xB0 SHL SWAP1 DIV AND DUP7 JUMP JUMPDEST PUSH1 0x60 PUSH1 0x0 DUP1 PUSH1 0x0 DUP1 PUSH1 0x0 DUP1 PUSH1 0x0 DUP10 PUSH1 0x1 PUSH1 0x1 PUSH1 0xA0 SHL SUB AND PUSH1 0x1 PUSH1 0x1 PUSH1 0xA0 SHL SUB AND DUP2 MSTORE PUSH1 0x20 ADD SWAP1 DUP2 MSTORE PUSH1 0x20 ADD PUSH1 0x0 KECCAK256 DUP8 DUP2 SLOAD DUP2 LT PUSH2 0x310 JUMPI PUSH2 0x310 PUSH2 0x79E JUMP JUMPDEST SWAP1 PUSH1 0x0 MSTORE PUSH1 0x20 PUSH1 0x0 KECCAK256 SWAP1 PUSH1 0x3 MUL ADD PUSH1 0x40 MLOAD DUP1 PUSH1 0xC0 ADD PUSH1 0x40 MSTORE SWAP1 DUP2 PUSH1 0x0 DUP3 ADD DUP1 SLOAD PUSH2 0x339 SWAP1 PUSH2 0x656 JUMP JUMPDEST DUP1 PUSH1 0x1F ADD PUSH1 0x20 DUP1 SWAP2 DIV MUL PUSH1 0x20 ADD PUSH1 0x40 MLOAD SWAP1 DUP2 ADD PUSH1 0x40 MSTORE DUP1 SWAP3 SWAP2 SWAP1 DUP2 DUP2 MSTORE PUSH1 0x20 ADD DUP3 DUP1 SLOAD PUSH2 0x365 SWAP1 PUSH2 0x656 JUMP JUMPDEST DUP1 ISZERO PUSH2 0x3B2 JUMPI DUP1 PUSH1 0x1F LT PUSH2 0x387 JUMPI PUSH2 0x100 DUP1 DUP4 SLOAD DIV MUL DUP4 MSTORE SWAP2 PUSH1 0x20 ADD SWAP2 PUSH2 0x3B2 JUMP JUMPDEST DUP3 ADD SWAP2 SWAP1 PUSH1 0x0 MSTORE PUSH1 0x20 PUSH1 0x0 KECCAK256 SWAP1 JUMPDEST DUP2 SLOAD DUP2 MSTORE SWAP1 PUSH1 0x1 ADD SWAP1 PUSH1 0x20 ADD DUP1 DUP4 GT PUSH2 0x395 JUMPI DUP3 SWAP1 SUB PUSH1 0x1F AND DUP3 ADD SWAP2 JUMPDEST POP POP POP SWAP2 DUP4 MSTORE POP POP PUSH1 0x1 DUP3 ADD SLOAD PUSH1 0x20 DUP1 DUP4 ADD SWAP2 SWAP1 SWAP2 MSTORE PUSH1 0x2 SWAP1 SWAP3 ADD SLOAD PUSH1 0x1 PUSH1 0x1 PUSH1 0xA0 SHL SUB DUP2 AND PUSH1 0x40 DUP4 ADD MSTORE PUSH1 0xFF PUSH1 0x1 PUSH1 0xA0 SHL DUP3 DIV DUP2 AND ISZERO ISZERO PUSH1 0x60 DUP1 DUP6 ADD SWAP2 SWAP1 SWAP2 MSTORE PUSH1 0x1 PUSH1 0xA8 SHL DUP4 DIV DUP3 AND ISZERO ISZERO PUSH1 0x80 DUP1 DUP7 ADD SWAP2 SWAP1 SWAP2 MSTORE PUSH1 0x1 PUSH1 0xB0 SHL SWAP1 SWAP4 DIV SWAP1 SWAP2 AND ISZERO ISZERO PUSH1 0xA0 SWAP4 DUP5 ADD MSTORE DUP5 MLOAD SWAP4 DUP6 ADD MLOAD SWAP1 DUP6 ADD MLOAD SWAP2 DUP6 ADD MLOAD SWAP5 SWAP1 SWAP3 ADD MLOAD SWAP3 SWAP13 SWAP2 SWAP12 POP SWAP10 POP SWAP2 SWAP8 POP SWAP6 POP SWAP4 POP POP POP POP JUMP JUMPDEST PUSH4 0x4E487B71 PUSH1 0xE0 SHL PUSH1 0x0 MSTORE PUSH1 0x41 PUSH1 0x4 MSTORE PUSH1 0x24 PUSH1 0x0 REVERT JUMPDEST DUP1 CALLDATALOAD DUP1 ISZERO ISZERO DUP2 EQ PUSH2 0x466 JUMPI PUSH1 0x0 DUP1 REVERT JUMPDEST SWAP2 SWAP1 POP JUMP JUMPDEST PUSH1 0x0 DUP1 PUSH1 0x0 DUP1 PUSH1 0x80 DUP6 DUP8 SUB SLT ISZERO PUSH2 0x481 JUMPI PUSH1 0x0 DUP1 REVERT JUMPDEST DUP5 CALLDATALOAD PUSH8 0xFFFFFFFFFFFFFFFF DUP2 GT ISZERO PUSH2 0x498 JUMPI PUSH1 0x0 DUP1 REVERT JUMPDEST DUP6 ADD PUSH1 0x1F DUP2 ADD DUP8 SGT PUSH2 0x4A9 JUMPI PUSH1 0x0 DUP1 REVERT JUMPDEST DUP1 CALLDATALOAD PUSH8 0xFFFFFFFFFFFFFFFF DUP2 GT ISZERO PUSH2 0x4C3 JUMPI PUSH2 0x4C3 PUSH2 0x440 JUMP JUMPDEST PUSH1 0x40 MLOAD PUSH1 0x1F DUP3 ADD PUSH1 0x1F NOT SWAP1 DUP2 AND PUSH1 0x3F ADD AND DUP2 ADD PUSH8 0xFFFFFFFFFFFFFFFF DUP2 GT DUP3 DUP3 LT OR ISZERO PUSH2 0x4F2 JUMPI PUSH2 0x4F2 PUSH2 0x440 JUMP JUMPDEST PUSH1 0x40 MSTORE DUP2 DUP2 MSTORE DUP3 DUP3 ADD PUSH1 0x20 ADD DUP10 LT ISZERO PUSH2 0x50A JUMPI PUSH1 0x0 DUP1 REVERT JUMPDEST DUP2 PUSH1 0x20 DUP5 ADD PUSH1 0x20 DUP4 ADD CALLDATACOPY PUSH1 0x0 PUSH1 0x20 DUP4 DUP4 ADD ADD MSTORE DUP1 SWAP7 POP POP POP POP PUSH2 0x52F PUSH1 0x20 DUP7 ADD PUSH2 0x456 JUMP JUMPDEST SWAP3 POP PUSH2 0x53D PUSH1 0x40 DUP7 ADD PUSH2 0x456 JUMP JUMPDEST SWAP2 POP PUSH2 0x54B PUSH1 0x60 DUP7 ADD PUSH2 0x456 JUMP JUMPDEST SWAP1 POP SWAP3 SWAP6 SWAP2 SWAP5 POP SWAP3 POP JUMP JUMPDEST PUSH1 0x0 DUP1 PUSH1 0x40 DUP4 DUP6 SUB SLT ISZERO PUSH2 0x569 JUMPI PUSH1 0x0 DUP1 REVERT JUMPDEST DUP3 CALLDATALOAD PUSH1 0x1 PUSH1 0x1 PUSH1 0xA0 SHL SUB DUP2 AND DUP2 EQ PUSH2 0x580 JUMPI PUSH1 0x0 DUP1 REVERT JUMPDEST SWAP5 PUSH1 0x20 SWAP4 SWAP1 SWAP4 ADD CALLDATALOAD SWAP4 POP POP POP JUMP JUMPDEST PUSH1 0x0 DUP2 MLOAD DUP1 DUP5 MSTORE PUSH1 0x0 JUMPDEST DUP2 DUP2 LT ISZERO PUSH2 0x5B4 JUMPI PUSH1 0x20 DUP2 DUP6 ADD DUP2 ADD MLOAD DUP7 DUP4 ADD DUP3 ADD MSTORE ADD PUSH2 0x598 JUMP JUMPDEST POP PUSH1 0x0 PUSH1 0x20 DUP3 DUP7 ADD ADD MSTORE PUSH1 0x20 PUSH1 0x1F NOT PUSH1 0x1F DUP4 ADD AND DUP6 ADD ADD SWAP2 POP POP SWAP3 SWAP2 POP POP JUMP JUMPDEST PUSH1 0xC0 DUP2 MSTORE PUSH1 0x0 PUSH2 0x5E7 PUSH1 0xC0 DUP4 ADD DUP10 PUSH2 0x58E JUMP JUMPDEST PUSH1 0x20 DUP4 ADD SWAP8 SWAP1 SWAP8 MSTORE POP PUSH1 0x1 PUSH1 0x1 PUSH1 0xA0 SHL SUB SWAP5 SWAP1 SWAP5 AND PUSH1 0x40 DUP6 ADD MSTORE SWAP2 ISZERO ISZERO PUSH1 0x60 DUP5 ADD MSTORE ISZERO ISZERO PUSH1 0x80 DUP4 ADD MSTORE ISZERO ISZERO PUSH1 0xA0 SWAP1 SWAP2 ADD MSTORE SWAP2 SWAP1 POP JUMP JUMPDEST PUSH1 0xA0 DUP2 MSTORE PUSH1 0x0 PUSH2 0x630 PUSH1 0xA0 DUP4 ADD DUP9 PUSH2 0x58E JUMP JUMPDEST PUSH1 0x20 DUP4 ADD SWAP7 SWAP1 SWAP7 MSTORE POP SWAP3 ISZERO ISZERO PUSH1 0x40 DUP5 ADD MSTORE SWAP1 ISZERO ISZERO PUSH1 0x60 DUP4 ADD MSTORE ISZERO ISZERO PUSH1 0x80 SWAP1 SWAP2 ADD MSTORE SWAP2 SWAP1 POP JUMP JUMPDEST PUSH1 0x1 DUP2 DUP2 SHR SWAP1 DUP3 AND DUP1 PUSH2 0x66A JUMPI PUSH1 0x7F DUP3 AND SWAP2 POP JUMPDEST PUSH1 0x20 DUP3 LT DUP2 SUB PUSH2 0x68A JUMPI PUSH4 0x4E487B71 PUSH1 0xE0 SHL PUSH1 0x0 MSTORE PUSH1 0x22 PUSH1 0x4 MSTORE PUSH1 0x24 PUSH1 0x0 REVERT JUMPDEST POP SWAP2 SWAP1 POP JUMP JUMPDEST PUSH1 0x1F DUP3 GT ISZERO PUSH2 0x6DA JUMPI DUP1 PUSH1 0x0 MSTORE PUSH1 0x20 PUSH1 0x0 KECCAK256 PUSH1 0x1F DUP5 ADD PUSH1 0x5 SHR DUP2 ADD PUSH1 0x20 DUP6 LT ISZERO PUSH2 0x6B7 JUMPI POP DUP1 JUMPDEST PUSH1 0x1F DUP5 ADD PUSH1 0x5 SHR DUP3 ADD SWAP2 POP JUMPDEST DUP2 DUP2 LT ISZERO PUSH2 0x6D7 JUMPI PUSH1 0x0 DUP2 SSTORE PUSH1 0x1 ADD PUSH2 0x6C3 JUMP JUMPDEST POP POP JUMPDEST POP POP POP JUMP JUMPDEST DUP2 MLOAD PUSH8 0xFFFFFFFFFFFFFFFF DUP2 GT ISZERO PUSH2 0x6F9 JUMPI PUSH2 0x6F9 PUSH2 0x440 JUMP JUMPDEST PUSH2 0x70D DUP2 PUSH2 0x707 DUP5 SLOAD PUSH2 0x656 JUMP JUMPDEST DUP5 PUSH2 0x690 JUMP JUMPDEST PUSH1 0x20 PUSH1 0x1F DUP3 GT PUSH1 0x1 DUP2 EQ PUSH2 0x741 JUMPI PUSH1 0x0 DUP4 ISZERO PUSH2 0x729 JUMPI POP DUP5 DUP3 ADD MLOAD JUMPDEST PUSH1 0x0 NOT PUSH1 0x3 DUP6 SWAP1 SHL SHR NOT AND PUSH1 0x1 DUP5 SWAP1 SHL OR DUP5 SSTORE PUSH2 0x6D7 JUMP JUMPDEST PUSH1 0x0 DUP5 DUP2 MSTORE PUSH1 0x20 DUP2 KECCAK256 PUSH1 0x1F NOT DUP6 AND SWAP2 JUMPDEST DUP3 DUP2 LT ISZERO PUSH2 0x771 JUMPI DUP8 DUP6 ADD MLOAD DUP3 SSTORE PUSH1 0x20 SWAP5 DUP6 ADD SWAP5 PUSH1 0x1 SWAP1 SWAP3 ADD SWAP2 ADD PUSH2 0x751 JUMP JUMPDEST POP DUP5 DUP3 LT ISZERO PUSH2 0x78F JUMPI DUP7 DUP5 ADD MLOAD PUSH1 0x0 NOT PUSH1 0x3 DUP8 SWAP1 SHL PUSH1 0xF8 AND SHR NOT AND DUP2 SSTORE JUMPDEST POP POP POP POP PUSH1 0x1 SWAP1 DUP2 SHL ADD SWAP1 SSTORE POP JUMP JUMPDEST PUSH4 0x4E487B71 PUSH1 0xE0 SHL PUSH1 0x0 MSTORE PUSH1 0x32 PUSH1 0x4 MSTORE PUSH1 0x24 PUSH1 0x0 REVERT INVALID LOG2 PUSH5 0x6970667358 0x22 SLT KECCAK256 PUSH8 0xC349050B12E752B7 LOG2 0xAF JUMPI PUSH15 0x25BD0CE2FEA26248AC296B2282FDF9 PUSH17 0x2108D264736F6C634300081E0033000000 ","sha1":"5a3f188b81b0ca78c65bbd3a682598fa5a7447d9","source":"// SPDX-License-Identifier: MIT\npragma solidity ^0.8.0;\n\ncontract LogAudits {\n\n    // Struct for Symptom\n    struct Symptom {\n        string symptomDescription;\n        uint256 submittedAt;\n        address patient; // The patient who submitted the symptom\n        bool treatmentConsent;\n        bool referralConsent;\n        bool researchConsent;\n    }\n\n    // Mapping to store symptoms by patient address\n    mapping(address => Symptom[]) public patientSymptoms;\n\n    // Event to log symptom submission\n    event SymptomSubmitted(\n        address indexed patient,\n        string symptomDescription,\n        uint256 timestamp,\n        bool treatmentConsent,\n        bool referralConsent,\n        bool researchConsent\n    );\n\n    // Modifier to check if the sender is the patient (can only submit their own symptoms)\n    modifier onlyPatient(address patient) {\n        require(msg.sender == patient, \"Only the patient can submit their symptoms.\");\n        _;\n    }\n\n    // Function for Patient to submit Symptom\n    function submitSymptom(\n        string memory _symptomDescription,\n        bool _treatmentConsent,\n        bool _referralConsent,\n        bool _researchConsent\n    ) public onlyPatient(msg.sender) {\n        // Generate a new symptom\n        Symptom memory newSymptom = Symptom({\n            symptomDescription: _symptomDescription,\n            submittedAt: block.timestamp,\n            patient: msg.sender,\n            treatmentConsent: _treatmentConsent,\n            referralConsent: _referralConsent,\n            researchConsent: _researchConsent\n        });\n\n        // Store the symptom in the mapping\n        patientSymptoms[msg.sender].push(newSymptom);\n\n        // Emit an event for the symptom submission\n        emit SymptomSubmitted(\n            msg.sender,\n            _symptomDescription,\n            block.timestamp,\n            _treatmentConsent,\n            _referralConsent,\n            _researchConsent\n        );\n    }\n\n    // Function to view symptoms (Only authorized doctors or admins can view)\n    function viewSymptom(address _patient, uint256 _symptomIndex) public view returns (\n        string memory symptomDescription,\n        uint256 submittedAt,\n        bool treatmentConsent,\n        bool referralConsent,\n        bool researchConsent\n    ) {\n        // Fetch the symptom from the mapping\n        Symptom memory symptom = patientSymptoms[_patient][_symptomIndex];\n        \n        return (\n            symptom.symptomDescription,\n            symptom.submittedAt,\n            symptom.treatmentConsent,\n            symptom.referralConsent,\n            symptom.researchConsent\n        );\n    }\n}\n","sourcePath":"contracts/LogAudits.sol","type":"contract","deployment":{"address":"0x72114FFb802BC16B9F77Cc413e94089830C3427f","chainid":"5777","blockHeight":16}}